{
  "_format": "hh-sol-artifact-1",
  "contractName": "ProjectRegistry",
  "sourceName": "contracts/ProjectRegistry.sol",
  "abi": [
    {
      "inputs": [
        {
          "internalType": "address",
          "name": "_attestationServiceAddress",
          "type": "address"
        }
      ],
      "stateMutability": "nonpayable",
      "type": "constructor"
    },
    {
      "inputs": [
        {
          "internalType": "address",
          "name": "owner",
          "type": "address"
        }
      ],
      "name": "OwnableInvalidOwner",
      "type": "error"
    },
    {
      "inputs": [
        {
          "internalType": "address",
          "name": "account",
          "type": "address"
        }
      ],
      "name": "OwnableUnauthorizedAccount",
      "type": "error"
    },
    {
      "anonymous": false,
      "inputs": [
        {
          "indexed": true,
          "internalType": "address",
          "name": "previousOwner",
          "type": "address"
        },
        {
          "indexed": true,
          "internalType": "address",
          "name": "newOwner",
          "type": "address"
        }
      ],
      "name": "OwnershipTransferred",
      "type": "event"
    },
    {
      "anonymous": false,
      "inputs": [
        {
          "indexed": true,
          "internalType": "uint256",
          "name": "projectId",
          "type": "uint256"
        },
        {
          "indexed": true,
          "internalType": "address",
          "name": "owner",
          "type": "address"
        },
        {
          "indexed": false,
          "internalType": "string",
          "name": "name",
          "type": "string"
        },
        {
          "indexed": false,
          "internalType": "string",
          "name": "category",
          "type": "string"
        },
        {
          "indexed": false,
          "internalType": "string",
          "name": "descriptionCID",
          "type": "string"
        },
        {
          "indexed": false,
          "internalType": "string[]",
          "name": "imageCIDs",
          "type": "string[]"
        },
        {
          "indexed": false,
          "internalType": "string[]",
          "name": "audioCIDs",
          "type": "string[]"
        },
        {
          "indexed": false,
          "internalType": "uint256",
          "name": "timestamp",
          "type": "uint256"
        }
      ],
      "name": "ProjectSubmitted",
      "type": "event"
    },
    {
      "anonymous": false,
      "inputs": [
        {
          "indexed": true,
          "internalType": "uint256",
          "name": "projectId",
          "type": "uint256"
        },
        {
          "indexed": true,
          "internalType": "address",
          "name": "updater",
          "type": "address"
        },
        {
          "indexed": false,
          "internalType": "uint256",
          "name": "timestamp",
          "type": "uint256"
        },
        {
          "indexed": false,
          "internalType": "string",
          "name": "message",
          "type": "string"
        }
      ],
      "name": "ProjectUpdatePosted",
      "type": "event"
    },
    {
      "inputs": [],
      "name": "attestationService",
      "outputs": [
        {
          "internalType": "contract IAttestationService",
          "name": "",
          "type": "address"
        }
      ],
      "stateMutability": "view",
      "type": "function"
    },
    {
      "inputs": [
        {
          "internalType": "uint256",
          "name": "_projectId",
          "type": "uint256"
        }
      ],
      "name": "deactivateProject",
      "outputs": [],
      "stateMutability": "nonpayable",
      "type": "function"
    },
    {
      "inputs": [],
      "name": "getAllActiveProjects",
      "outputs": [
        {
          "components": [
            {
              "internalType": "uint256",
              "name": "id",
              "type": "uint256"
            },
            {
              "internalType": "address payable",
              "name": "owner",
              "type": "address"
            },
            {
              "internalType": "string",
              "name": "name",
              "type": "string"
            },
            {
              "internalType": "string",
              "name": "descriptionCID",
              "type": "string"
            },
            {
              "internalType": "string",
              "name": "category",
              "type": "string"
            },
            {
              "internalType": "string[]",
              "name": "imageCIDs",
              "type": "string[]"
            },
            {
              "internalType": "string[]",
              "name": "audioCIDs",
              "type": "string[]"
            },
            {
              "internalType": "bool",
              "name": "isActive",
              "type": "bool"
            },
            {
              "internalType": "uint256",
              "name": "timestamp",
              "type": "uint256"
            }
          ],
          "internalType": "struct ProjectRegistry.Project[]",
          "name": "",
          "type": "tuple[]"
        }
      ],
      "stateMutability": "view",
      "type": "function"
    },
    {
      "inputs": [
        {
          "internalType": "uint256",
          "name": "_projectId",
          "type": "uint256"
        }
      ],
      "name": "getProject",
      "outputs": [
        {
          "internalType": "uint256",
          "name": "id",
          "type": "uint256"
        },
        {
          "internalType": "address",
          "name": "owner",
          "type": "address"
        },
        {
          "internalType": "string",
          "name": "name",
          "type": "string"
        },
        {
          "internalType": "string",
          "name": "descriptionCID",
          "type": "string"
        },
        {
          "internalType": "string",
          "name": "category",
          "type": "string"
        },
        {
          "internalType": "string[]",
          "name": "imageCIDs",
          "type": "string[]"
        },
        {
          "internalType": "string[]",
          "name": "audioCIDs",
          "type": "string[]"
        },
        {
          "internalType": "bool",
          "name": "isActive",
          "type": "bool"
        },
        {
          "internalType": "uint256",
          "name": "timestamp",
          "type": "uint256"
        }
      ],
      "stateMutability": "view",
      "type": "function"
    },
    {
      "inputs": [
        {
          "internalType": "uint256",
          "name": "_projectId",
          "type": "uint256"
        }
      ],
      "name": "getProjectUpdates",
      "outputs": [
        {
          "components": [
            {
              "internalType": "uint256",
              "name": "timestamp",
              "type": "uint256"
            },
            {
              "internalType": "string",
              "name": "message",
              "type": "string"
            },
            {
              "internalType": "string[]",
              "name": "mediaCIDs",
              "type": "string[]"
            }
          ],
          "internalType": "struct ProjectRegistry.ProjectUpdate[]",
          "name": "",
          "type": "tuple[]"
        }
      ],
      "stateMutability": "view",
      "type": "function"
    },
    {
      "inputs": [],
      "name": "nextProjectId",
      "outputs": [
        {
          "internalType": "uint256",
          "name": "",
          "type": "uint256"
        }
      ],
      "stateMutability": "view",
      "type": "function"
    },
    {
      "inputs": [],
      "name": "owner",
      "outputs": [
        {
          "internalType": "address",
          "name": "",
          "type": "address"
        }
      ],
      "stateMutability": "view",
      "type": "function"
    },
    {
      "inputs": [
        {
          "internalType": "address",
          "name": "",
          "type": "address"
        },
        {
          "internalType": "uint256",
          "name": "",
          "type": "uint256"
        }
      ],
      "name": "ownerProjects",
      "outputs": [
        {
          "internalType": "uint256",
          "name": "",
          "type": "uint256"
        }
      ],
      "stateMutability": "view",
      "type": "function"
    },
    {
      "inputs": [
        {
          "internalType": "uint256",
          "name": "_projectId",
          "type": "uint256"
        },
        {
          "internalType": "string",
          "name": "_message",
          "type": "string"
        },
        {
          "internalType": "string[]",
          "name": "_mediaCIDs",
          "type": "string[]"
        }
      ],
      "name": "postProjectUpdate",
      "outputs": [],
      "stateMutability": "nonpayable",
      "type": "function"
    },
    {
      "inputs": [
        {
          "internalType": "uint256",
          "name": "",
          "type": "uint256"
        },
        {
          "internalType": "uint256",
          "name": "",
          "type": "uint256"
        }
      ],
      "name": "projectUpdates",
      "outputs": [
        {
          "internalType": "uint256",
          "name": "timestamp",
          "type": "uint256"
        },
        {
          "internalType": "string",
          "name": "message",
          "type": "string"
        }
      ],
      "stateMutability": "view",
      "type": "function"
    },
    {
      "inputs": [
        {
          "internalType": "uint256",
          "name": "",
          "type": "uint256"
        }
      ],
      "name": "projects",
      "outputs": [
        {
          "internalType": "uint256",
          "name": "id",
          "type": "uint256"
        },
        {
          "internalType": "address payable",
          "name": "owner",
          "type": "address"
        },
        {
          "internalType": "string",
          "name": "name",
          "type": "string"
        },
        {
          "internalType": "string",
          "name": "descriptionCID",
          "type": "string"
        },
        {
          "internalType": "string",
          "name": "category",
          "type": "string"
        },
        {
          "internalType": "bool",
          "name": "isActive",
          "type": "bool"
        },
        {
          "internalType": "uint256",
          "name": "timestamp",
          "type": "uint256"
        }
      ],
      "stateMutability": "view",
      "type": "function"
    },
    {
      "inputs": [],
      "name": "renounceOwnership",
      "outputs": [],
      "stateMutability": "nonpayable",
      "type": "function"
    },
    {
      "inputs": [
        {
          "internalType": "string",
          "name": "_name",
          "type": "string"
        },
        {
          "internalType": "string",
          "name": "_descriptionCID",
          "type": "string"
        },
        {
          "internalType": "string",
          "name": "_category",
          "type": "string"
        },
        {
          "internalType": "string[]",
          "name": "_imageCIDs",
          "type": "string[]"
        },
        {
          "internalType": "string[]",
          "name": "_audioCIDs",
          "type": "string[]"
        }
      ],
      "name": "submitProject",
      "outputs": [],
      "stateMutability": "nonpayable",
      "type": "function"
    },
    {
      "inputs": [
        {
          "internalType": "address",
          "name": "newOwner",
          "type": "address"
        }
      ],
      "name": "transferOwnership",
      "outputs": [],
      "stateMutability": "nonpayable",
      "type": "function"
    }
  ],
  "bytecode": "0x60806040523480156200001157600080fd5b5060405162003601380380620036018339818101604052810190620000379190620002af565b33600073ffffffffffffffffffffffffffffffffffffffff168173ffffffffffffffffffffffffffffffffffffffff1603620000ad5760006040517f1e4fbdf7000000000000000000000000000000000000000000000000000000008152600401620000a49190620002f2565b60405180910390fd5b620000be816200018160201b60201c565b50600073ffffffffffffffffffffffffffffffffffffffff168173ffffffffffffffffffffffffffffffffffffffff160362000131576040517f08c379a0000000000000000000000000000000000000000000000000000000008152600401620001289062000396565b60405180910390fd5b80600560006101000a81548173ffffffffffffffffffffffffffffffffffffffff021916908373ffffffffffffffffffffffffffffffffffffffff160217905550600060018190555050620003b8565b60008060009054906101000a900473ffffffffffffffffffffffffffffffffffffffff169050816000806101000a81548173ffffffffffffffffffffffffffffffffffffffff021916908373ffffffffffffffffffffffffffffffffffffffff1602179055508173ffffffffffffffffffffffffffffffffffffffff168173ffffffffffffffffffffffffffffffffffffffff167f8be0079c531659141344cd1fd0a4f28419497f9722a3daafe3b4186f6b6457e060405160405180910390a35050565b600080fd5b600073ffffffffffffffffffffffffffffffffffffffff82169050919050565b600062000277826200024a565b9050919050565b62000289816200026a565b81146200029557600080fd5b50565b600081519050620002a9816200027e565b92915050565b600060208284031215620002c857620002c762000245565b5b6000620002d88482850162000298565b91505092915050565b620002ec816200026a565b82525050565b6000602082019050620003096000830184620002e1565b92915050565b600082825260208201905092915050565b7f4174746573746174696f6e5365727669636520616464726573732063616e6e6f60008201527f74206265207a65726f0000000000000000000000000000000000000000000000602082015250565b60006200037e6029836200030f565b91506200038b8262000320565b604082019050919050565b60006020820190508181036000830152620003b1816200036f565b9050919050565b61323980620003c86000396000f3fe608060405234801561001057600080fd5b50600436106100ea5760003560e01c806377dde5261161008c578063e935b7b111610066578063e935b7b114610250578063f0f3f2c81461026e578063f2ef441b146102a6578063f2fde38b146102c4576100ea565b806377dde526146101e657806383a038af146102165780638da5cb5b14610232576100ea565b8063362e9be2116100c8578063362e9be214610174578063436e6958146101905780635c9f3572146101ac578063715018a6146101dc576100ea565b8063107046bd146100ef5780632cd0470014610125578063323cbf8814610143575b600080fd5b61010960048036038101906101049190611ce4565b6102e0565b60405161011c9796959493929190611e0c565b60405180910390f35b61012d6104e7565b60405161013a9190611eef565b60405180910390f35b61015d60048036038101906101589190611f0a565b61050d565b60405161016b929190611f4a565b60405180910390f35b61018e60048036038101906101899190612195565b6105d6565b005b6101aa60048036038101906101a59190611ce4565b6109c6565b005b6101c660048036038101906101c19190611ce4565b610b01565b6040516101d391906124d0565b60405180910390f35b6101e4610d40565b005b61020060048036038101906101fb9190612530565b610d54565b60405161020d9190612570565b60405180910390f35b610230600480360381019061022b919061258b565b610d85565b005b61023a610fb3565b6040516102479190612625565b60405180910390f35b610258610fdc565b6040516102659190612570565b60405180910390f35b61028860048036038101906102839190611ce4565b610fe2565b60405161029d999897969594939291906126c6565b60405180910390f35b6102ae61140c565b6040516102bb9190612937565b60405180910390f35b6102de60048036038101906102d99190612959565b611983565b005b60026020528060005260406000206000915090508060000154908060010160009054906101000a900473ffffffffffffffffffffffffffffffffffffffff169080600201805461032f906129b5565b80601f016020809104026020016040519081016040528092919081815260200182805461035b906129b5565b80156103a85780601f1061037d576101008083540402835291602001916103a8565b820191906000526020600020905b81548152906001019060200180831161038b57829003601f168201915b5050505050908060030180546103bd906129b5565b80601f01602080910402602001604051908101604052809291908181526020018280546103e9906129b5565b80156104365780601f1061040b57610100808354040283529160200191610436565b820191906000526020600020905b81548152906001019060200180831161041957829003601f168201915b50505050509080600401805461044b906129b5565b80601f0160208091040260200160405190810160405280929190818152602001828054610477906129b5565b80156104c45780601f10610499576101008083540402835291602001916104c4565b820191906000526020600020905b8154815290600101906020018083116104a757829003601f168201915b5050505050908060070160009054906101000a900460ff16908060080154905087565b600560009054906101000a900473ffffffffffffffffffffffffffffffffffffffff1681565b6004602052816000526040600020818154811061052957600080fd5b906000526020600020906003020160009150915050806000015490806001018054610553906129b5565b80601f016020809104026020016040519081016040528092919081815260200182805461057f906129b5565b80156105cc5780601f106105a1576101008083540402835291602001916105cc565b820191906000526020600020905b8154815290600101906020018083116105af57829003601f168201915b5050505050905082565b600560009054906101000a900473ffffffffffffffffffffffffffffffffffffffff1673ffffffffffffffffffffffffffffffffffffffff1663f7a7c672336040518263ffffffff1660e01b81526004016106319190612a32565b602060405180830381865afa15801561064e573d6000803e3d6000fd5b505050506040513d601f19601f820116820180604052508101906106729190612a8c565b6106b1576040517f08c379a00000000000000000000000000000000000000000000000000000000081526004016106a890612b2b565b60405180910390fd5b60008551116106f5576040517f08c379a00000000000000000000000000000000000000000000000000000000081526004016106ec90612b97565b60405180910390fd5b6000845111610739576040517f08c379a000000000000000000000000000000000000000000000000000000000815260040161073090612c03565b60405180910390fd5b600083511161077d576040517f08c379a000000000000000000000000000000000000000000000000000000000815260040161077490612c6f565b60405180910390fd5b60006001600081548092919061079290612cbe565b9190505590506040518061012001604052808281526020013373ffffffffffffffffffffffffffffffffffffffff16815260200187815260200186815260200185815260200184815260200183815260200160011515815260200142815250600260008381526020019081526020016000206000820151816000015560208201518160010160006101000a81548173ffffffffffffffffffffffffffffffffffffffff021916908373ffffffffffffffffffffffffffffffffffffffff160217905550604082015181600201908161086a9190612ea8565b5060608201518160030190816108809190612ea8565b5060808201518160040190816108969190612ea8565b5060a08201518160050190805190602001906108b3929190611b5c565b5060c08201518160060190805190602001906108d0929190611b5c565b5060e08201518160070160006101000a81548160ff0219169083151502179055506101008201518160080155905050600360003373ffffffffffffffffffffffffffffffffffffffff1673ffffffffffffffffffffffffffffffffffffffff1681526020019081526020016000208190806001815401808255809150506001900390600052602060002001600090919091909150553373ffffffffffffffffffffffffffffffffffffffff16817f3da254bd09987b28bcc38b3a98a2f0551af19e9f6065071eff40a9de493e9f4d8887898888426040516109b696959493929190612f7a565b60405180910390a3505050505050565b803373ffffffffffffffffffffffffffffffffffffffff166002600083815260200190815260200160002060010160009054906101000a900473ffffffffffffffffffffffffffffffffffffffff1673ffffffffffffffffffffffffffffffffffffffff1614610a6b576040517f08c379a0000000000000000000000000000000000000000000000000000000008152600401610a6290613070565b60405180910390fd5b6002600083815260200190815260200160002060070160009054906101000a900460ff16610ace576040517f08c379a0000000000000000000000000000000000000000000000000000000008152600401610ac5906130dc565b60405180910390fd5b60006002600084815260200190815260200160002060070160006101000a81548160ff0219169083151502179055505050565b606081600260008481526020019081526020016000206000015414610b5b576040517f08c379a0000000000000000000000000000000000000000000000000000000008152600401610b5290613148565b60405180910390fd5b60046000838152602001908152602001600020805480602002602001604051908101604052809291908181526020016000905b82821015610d35578382906000526020600020906003020160405180606001604052908160008201548152602001600182018054610bcb906129b5565b80601f0160208091040260200160405190810160405280929190818152602001828054610bf7906129b5565b8015610c445780601f10610c1957610100808354040283529160200191610c44565b820191906000526020600020905b815481529060010190602001808311610c2757829003601f168201915b5050505050815260200160028201805480602002602001604051908101604052809291908181526020016000905b82821015610d1e578382906000526020600020018054610c91906129b5565b80601f0160208091040260200160405190810160405280929190818152602001828054610cbd906129b5565b8015610d0a5780601f10610cdf57610100808354040283529160200191610d0a565b820191906000526020600020905b815481529060010190602001808311610ced57829003601f168201915b505050505081526020019060010190610c72565b505050508152505081526020019060010190610b8e565b505050509050919050565b610d48611a09565b610d526000611a90565b565b60036020528160005260406000208181548110610d7057600080fd5b90600052602060002001600091509150505481565b823373ffffffffffffffffffffffffffffffffffffffff166002600083815260200190815260200160002060010160009054906101000a900473ffffffffffffffffffffffffffffffffffffffff1673ffffffffffffffffffffffffffffffffffffffff1614610e2a576040517f08c379a0000000000000000000000000000000000000000000000000000000008152600401610e2190613070565b60405180910390fd5b6000835111610e6e576040517f08c379a0000000000000000000000000000000000000000000000000000000008152600401610e65906131b4565b60405180910390fd5b83600260008681526020019081526020016000206000015414610ec6576040517f08c379a0000000000000000000000000000000000000000000000000000000008152600401610ebd90613148565b60405180910390fd5b600460008581526020019081526020016000206040518060600160405280428152602001858152602001848152509080600181540180825580915050600190039060005260206000209060030201600090919091909150600082015181600001556020820151816001019081610f3c9190612ea8565b506040820151816002019080519060200190610f59929190611b5c565b5050503373ffffffffffffffffffffffffffffffffffffffff16847ffc8c97c99415d245f44dacdf87400521748198b7c936c73d800e9087b25e80414286604051610fa5929190611f4a565b60405180910390a350505050565b60008060009054906101000a900473ffffffffffffffffffffffffffffffffffffffff16905090565b60015481565b60008060608060608060606000806000600260008c815260200190815260200160002090508a81600001541461104d576040517f08c379a000000000000000000000000000000000000000000000000000000000815260040161104490613148565b60405180910390fd5b80600001548160010160009054906101000a900473ffffffffffffffffffffffffffffffffffffffff1682600201836003018460040185600501866006018760070160009054906101000a900460ff1688600801548680546110ae906129b5565b80601f01602080910402602001604051908101604052809291908181526020018280546110da906129b5565b80156111275780601f106110fc57610100808354040283529160200191611127565b820191906000526020600020905b81548152906001019060200180831161110a57829003601f168201915b5050505050965085805461113a906129b5565b80601f0160208091040260200160405190810160405280929190818152602001828054611166906129b5565b80156111b35780601f10611188576101008083540402835291602001916111b3565b820191906000526020600020905b81548152906001019060200180831161119657829003601f168201915b505050505095508480546111c6906129b5565b80601f01602080910402602001604051908101604052809291908181526020018280546111f2906129b5565b801561123f5780601f106112145761010080835404028352916020019161123f565b820191906000526020600020905b81548152906001019060200180831161122257829003601f168201915b5050505050945083805480602002602001604051908101604052809291908181526020016000905b82821015611313578382906000526020600020018054611286906129b5565b80601f01602080910402602001604051908101604052809291908181526020018280546112b2906129b5565b80156112ff5780601f106112d4576101008083540402835291602001916112ff565b820191906000526020600020905b8154815290600101906020018083116112e257829003601f168201915b505050505081526020019060010190611267565b50505050935082805480602002602001604051908101604052809291908181526020016000905b828210156113e6578382906000526020600020018054611359906129b5565b80601f0160208091040260200160405190810160405280929190818152602001828054611385906129b5565b80156113d25780601f106113a7576101008083540402835291602001916113d2565b820191906000526020600020905b8154815290600101906020018083116113b557829003601f168201915b50505050508152602001906001019061133a565b505050509250995099509950995099509950995099509950509193959799909294969850565b60606000805b6001548110156114825780600260008381526020019081526020016000206000015414801561146157506002600082815260200190815260200160002060070160009054906101000a900460ff165b1561147557818061147190612cbe565b9250505b8080600101915050611412565b5060008167ffffffffffffffff81111561149f5761149e611f84565b5b6040519080825280602002602001820160405280156114d857816020015b6114c5611bb5565b8152602001906001900390816114bd5790505b5090506000805b6001548110156119795780600260008381526020019081526020016000206000015414801561152e57506002600082815260200190815260200160002060070160009054906101000a900460ff165b1561196c576002600082815260200190815260200160002060405180610120016040529081600082015481526020016001820160009054906101000a900473ffffffffffffffffffffffffffffffffffffffff1673ffffffffffffffffffffffffffffffffffffffff1673ffffffffffffffffffffffffffffffffffffffff1681526020016002820180546115c2906129b5565b80601f01602080910402602001604051908101604052809291908181526020018280546115ee906129b5565b801561163b5780601f106116105761010080835404028352916020019161163b565b820191906000526020600020905b81548152906001019060200180831161161e57829003601f168201915b50505050508152602001600382018054611654906129b5565b80601f0160208091040260200160405190810160405280929190818152602001828054611680906129b5565b80156116cd5780601f106116a2576101008083540402835291602001916116cd565b820191906000526020600020905b8154815290600101906020018083116116b057829003601f168201915b505050505081526020016004820180546116e6906129b5565b80601f0160208091040260200160405190810160405280929190818152602001828054611712906129b5565b801561175f5780601f106117345761010080835404028352916020019161175f565b820191906000526020600020905b81548152906001019060200180831161174257829003601f168201915b5050505050815260200160058201805480602002602001604051908101604052809291908181526020016000905b828210156118395783829060005260206000200180546117ac906129b5565b80601f01602080910402602001604051908101604052809291908181526020018280546117d8906129b5565b80156118255780601f106117fa57610100808354040283529160200191611825565b820191906000526020600020905b81548152906001019060200180831161180857829003601f168201915b50505050508152602001906001019061178d565b50505050815260200160068201805480602002602001604051908101604052809291908181526020016000905b82821015611912578382906000526020600020018054611885906129b5565b80601f01602080910402602001604051908101604052809291908181526020018280546118b1906129b5565b80156118fe5780601f106118d3576101008083540402835291602001916118fe565b820191906000526020600020905b8154815290600101906020018083116118e157829003601f168201915b505050505081526020019060010190611866565b5050505081526020016007820160009054906101000a900460ff16151515158152602001600882015481525050838381518110611952576119516131d4565b5b6020026020010181905250818061196890612cbe565b9250505b80806001019150506114df565b5081935050505090565b61198b611a09565b600073ffffffffffffffffffffffffffffffffffffffff168173ffffffffffffffffffffffffffffffffffffffff16036119fd5760006040517f1e4fbdf70000000000000000000000000000000000000000000000000000000081526004016119f49190612625565b60405180910390fd5b611a0681611a90565b50565b611a11611b54565b73ffffffffffffffffffffffffffffffffffffffff16611a2f610fb3565b73ffffffffffffffffffffffffffffffffffffffff1614611a8e57611a52611b54565b6040517f118cdaa7000000000000000000000000000000000000000000000000000000008152600401611a859190612625565b60405180910390fd5b565b60008060009054906101000a900473ffffffffffffffffffffffffffffffffffffffff169050816000806101000a81548173ffffffffffffffffffffffffffffffffffffffff021916908373ffffffffffffffffffffffffffffffffffffffff1602179055508173ffffffffffffffffffffffffffffffffffffffff168173ffffffffffffffffffffffffffffffffffffffff167f8be0079c531659141344cd1fd0a4f28419497f9722a3daafe3b4186f6b6457e060405160405180910390a35050565b600033905090565b828054828255906000526020600020908101928215611ba4579160200282015b82811115611ba3578251829081611b939190612ea8565b5091602001919060010190611b7c565b5b509050611bb19190611c19565b5090565b60405180610120016040528060008152602001600073ffffffffffffffffffffffffffffffffffffffff1681526020016060815260200160608152602001606081526020016060815260200160608152602001600015158152602001600081525090565b5b80821115611c395760008181611c309190611c3d565b50600101611c1a565b5090565b508054611c49906129b5565b6000825580601f10611c5b5750611c7a565b601f016020900490600052602060002090810190611c799190611c7d565b5b50565b5b80821115611c96576000816000905550600101611c7e565b5090565b6000604051905090565b600080fd5b600080fd5b6000819050919050565b611cc181611cae565b8114611ccc57600080fd5b50565b600081359050611cde81611cb8565b92915050565b600060208284031215611cfa57611cf9611ca4565b5b6000611d0884828501611ccf565b91505092915050565b611d1a81611cae565b82525050565b600073ffffffffffffffffffffffffffffffffffffffff82169050919050565b6000611d4b82611d20565b9050919050565b611d5b81611d40565b82525050565b600081519050919050565b600082825260208201905092915050565b60005b83811015611d9b578082015181840152602081019050611d80565b60008484015250505050565b6000601f19601f8301169050919050565b6000611dc382611d61565b611dcd8185611d6c565b9350611ddd818560208601611d7d565b611de681611da7565b840191505092915050565b60008115159050919050565b611e0681611df1565b82525050565b600060e082019050611e21600083018a611d11565b611e2e6020830189611d52565b8181036040830152611e408188611db8565b90508181036060830152611e548187611db8565b90508181036080830152611e688186611db8565b9050611e7760a0830185611dfd565b611e8460c0830184611d11565b98975050505050505050565b6000819050919050565b6000611eb5611eb0611eab84611d20565b611e90565b611d20565b9050919050565b6000611ec782611e9a565b9050919050565b6000611ed982611ebc565b9050919050565b611ee981611ece565b82525050565b6000602082019050611f046000830184611ee0565b92915050565b60008060408385031215611f2157611f20611ca4565b5b6000611f2f85828601611ccf565b9250506020611f4085828601611ccf565b9150509250929050565b6000604082019050611f5f6000830185611d11565b8181036020830152611f718184611db8565b90509392505050565b600080fd5b600080fd5b7f4e487b7100000000000000000000000000000000000000000000000000000000600052604160045260246000fd5b611fbc82611da7565b810181811067ffffffffffffffff82111715611fdb57611fda611f84565b5b80604052505050565b6000611fee611c9a565b9050611ffa8282611fb3565b919050565b600067ffffffffffffffff82111561201a57612019611f84565b5b61202382611da7565b9050602081019050919050565b82818337600083830152505050565b600061205261204d84611fff565b611fe4565b90508281526020810184848401111561206e5761206d611f7f565b5b612079848285612030565b509392505050565b600082601f83011261209657612095611f7a565b5b81356120a684826020860161203f565b91505092915050565b600067ffffffffffffffff8211156120ca576120c9611f84565b5b602082029050602081019050919050565b600080fd5b60006120f36120ee846120af565b611fe4565b90508083825260208201905060208402830185811115612116576121156120db565b5b835b8181101561215d57803567ffffffffffffffff81111561213b5761213a611f7a565b5b8086016121488982612081565b85526020850194505050602081019050612118565b5050509392505050565b600082601f83011261217c5761217b611f7a565b5b813561218c8482602086016120e0565b91505092915050565b600080600080600060a086880312156121b1576121b0611ca4565b5b600086013567ffffffffffffffff8111156121cf576121ce611ca9565b5b6121db88828901612081565b955050602086013567ffffffffffffffff8111156121fc576121fb611ca9565b5b61220888828901612081565b945050604086013567ffffffffffffffff81111561222957612228611ca9565b5b61223588828901612081565b935050606086013567ffffffffffffffff81111561225657612255611ca9565b5b61226288828901612167565b925050608086013567ffffffffffffffff81111561228357612282611ca9565b5b61228f88828901612167565b9150509295509295909350565b600081519050919050565b600082825260208201905092915050565b6000819050602082019050919050565b6122d181611cae565b82525050565b600082825260208201905092915050565b60006122f382611d61565b6122fd81856122d7565b935061230d818560208601611d7d565b61231681611da7565b840191505092915050565b600081519050919050565b600082825260208201905092915050565b6000819050602082019050919050565b600061235983836122e8565b905092915050565b6000602082019050919050565b600061237982612321565b612383818561232c565b9350836020820285016123958561233d565b8060005b858110156123d157848403895281516123b2858261234d565b94506123bd83612361565b925060208a01995050600181019050612399565b50829750879550505050505092915050565b60006060830160008301516123fb60008601826122c8565b506020830151848203602086015261241382826122e8565b9150506040830151848203604086015261242d828261236e565b9150508091505092915050565b600061244683836123e3565b905092915050565b6000602082019050919050565b60006124668261229c565b61247081856122a7565b935083602082028501612482856122b8565b8060005b858110156124be578484038952815161249f858261243a565b94506124aa8361244e565b925060208a01995050600181019050612486565b50829750879550505050505092915050565b600060208201905081810360008301526124ea818461245b565b905092915050565b60006124fd82611d20565b9050919050565b61250d816124f2565b811461251857600080fd5b50565b60008135905061252a81612504565b92915050565b6000806040838503121561254757612546611ca4565b5b60006125558582860161251b565b925050602061256685828601611ccf565b9150509250929050565b60006020820190506125856000830184611d11565b92915050565b6000806000606084860312156125a4576125a3611ca4565b5b60006125b286828701611ccf565b935050602084013567ffffffffffffffff8111156125d3576125d2611ca9565b5b6125df86828701612081565b925050604084013567ffffffffffffffff811115612600576125ff611ca9565b5b61260c86828701612167565b9150509250925092565b61261f816124f2565b82525050565b600060208201905061263a6000830184612616565b92915050565b600082825260208201905092915050565b600061265c82612321565b6126668185612640565b9350836020820285016126788561233d565b8060005b858110156126b45784840389528151612695858261234d565b94506126a083612361565b925060208a0199505060018101905061267c565b50829750879550505050505092915050565b6000610120820190506126dc600083018c611d11565b6126e9602083018b612616565b81810360408301526126fb818a611db8565b9050818103606083015261270f8189611db8565b905081810360808301526127238188611db8565b905081810360a08301526127378187612651565b905081810360c083015261274b8186612651565b905061275a60e0830185611dfd565b612768610100830184611d11565b9a9950505050505050505050565b600081519050919050565b600082825260208201905092915050565b6000819050602082019050919050565b6127ab81611d40565b82525050565b6127ba81611df1565b82525050565b6000610120830160008301516127d960008601826122c8565b5060208301516127ec60208601826127a2565b506040830151848203604086015261280482826122e8565b9150506060830151848203606086015261281e82826122e8565b9150506080830151848203608086015261283882826122e8565b91505060a083015184820360a0860152612852828261236e565b91505060c083015184820360c086015261286c828261236e565b91505060e083015161288160e08601826127b1565b506101008301516128966101008601826122c8565b508091505092915050565b60006128ad83836127c0565b905092915050565b6000602082019050919050565b60006128cd82612776565b6128d78185612781565b9350836020820285016128e985612792565b8060005b85811015612925578484038952815161290685826128a1565b9450612911836128b5565b925060208a019950506001810190506128ed565b50829750879550505050505092915050565b6000602082019050818103600083015261295181846128c2565b905092915050565b60006020828403121561296f5761296e611ca4565b5b600061297d8482850161251b565b91505092915050565b7f4e487b7100000000000000000000000000000000000000000000000000000000600052602260045260246000fd5b600060028204905060018216806129cd57607f821691505b6020821081036129e0576129df612986565b5b50919050565b7f4172746973740000000000000000000000000000000000000000000000000000600082015250565b6000612a1c600683611d6c565b9150612a27826129e6565b602082019050919050565b6000604082019050612a476000830184612616565b8181036020830152612a5881612a0f565b905092915050565b612a6981611df1565b8114612a7457600080fd5b50565b600081519050612a8681612a60565b92915050565b600060208284031215612aa257612aa1611ca4565b5b6000612ab084828501612a77565b91505092915050565b7f4e6f7420617574686f72697a65643a206d75737420686176652027417274697360008201527f7427206174746573746174696f6e000000000000000000000000000000000000602082015250565b6000612b15602e83611d6c565b9150612b2082612ab9565b604082019050919050565b60006020820190508181036000830152612b4481612b08565b9050919050565b7f50726f6a656374206e616d652063616e6e6f7420626520656d70747900000000600082015250565b6000612b81601c83611d6c565b9150612b8c82612b4b565b602082019050919050565b60006020820190508181036000830152612bb081612b74565b9050919050565b7f4465736372697074696f6e204349442063616e6e6f7420626520656d70747900600082015250565b6000612bed601f83611d6c565b9150612bf882612bb7565b602082019050919050565b60006020820190508181036000830152612c1c81612be0565b9050919050565b7f43617465676f72792063616e6e6f7420626520656d7074790000000000000000600082015250565b6000612c59601883611d6c565b9150612c6482612c23565b602082019050919050565b60006020820190508181036000830152612c8881612c4c565b9050919050565b7f4e487b7100000000000000000000000000000000000000000000000000000000600052601160045260246000fd5b6000612cc982611cae565b91507fffffffffffffffffffffffffffffffffffffffffffffffffffffffffffffffff8203612cfb57612cfa612c8f565b5b600182019050919050565b60008190508160005260206000209050919050565b60006020601f8301049050919050565b600082821b905092915050565b600060088302612d687fffffffffffffffffffffffffffffffffffffffffffffffffffffffffffffffff82612d2b565b612d728683612d2b565b95508019841693508086168417925050509392505050565b6000612da5612da0612d9b84611cae565b611e90565b611cae565b9050919050565b6000819050919050565b612dbf83612d8a565b612dd3612dcb82612dac565b848454612d38565b825550505050565b600090565b612de8612ddb565b612df3818484612db6565b505050565b5b81811015612e1757612e0c600082612de0565b600181019050612df9565b5050565b601f821115612e5c57612e2d81612d06565b612e3684612d1b565b81016020851015612e45578190505b612e59612e5185612d1b565b830182612df8565b50505b505050565b600082821c905092915050565b6000612e7f60001984600802612e61565b1980831691505092915050565b6000612e988383612e6e565b9150826002028217905092915050565b612eb182611d61565b67ffffffffffffffff811115612eca57612ec9611f84565b5b612ed482546129b5565b612edf828285612e1b565b600060209050601f831160018114612f125760008415612f00578287015190505b612f0a8582612e8c565b865550612f72565b601f198416612f2086612d06565b60005b82811015612f4857848901518255600182019150602085019450602081019050612f23565b86831015612f655784890151612f61601f891682612e6e565b8355505b6001600288020188555050505b505050505050565b600060c0820190508181036000830152612f948189611db8565b90508181036020830152612fa88188611db8565b90508181036040830152612fbc8187611db8565b90508181036060830152612fd08186612651565b90508181036080830152612fe48185612651565b9050612ff360a0830184611d11565b979650505050505050565b7f4e6f7420617574686f72697a65643a206f6e6c792070726f6a656374206f776e60008201527f65722063616e20706572666f726d207468697320616374696f6e000000000000602082015250565b600061305a603a83611d6c565b915061306582612ffe565b604082019050919050565b600060208201905081810360008301526130898161304d565b9050919050565b7f50726f6a65637420697320616c726561647920696e6163746976650000000000600082015250565b60006130c6601b83611d6c565b91506130d182613090565b602082019050919050565b600060208201905081810360008301526130f5816130b9565b9050919050565b7f50726f6a65637420646f6573206e6f7420657869737400000000000000000000600082015250565b6000613132601683611d6c565b915061313d826130fc565b602082019050919050565b6000602082019050818103600083015261316181613125565b9050919050565b7f557064617465206d6573736167652063616e6e6f7420626520656d7074790000600082015250565b600061319e601e83611d6c565b91506131a982613168565b602082019050919050565b600060208201905081810360008301526131cd81613191565b9050919050565b7f4e487b7100000000000000000000000000000000000000000000000000000000600052603260045260246000fdfea2646970667358221220abd062d2542a69f95e0c7378fd12bd663d2d4b43d06fb15cd690110ff811e21f64736f6c63430008180033",
  "linkReferences": {},
  "deployedLinkReferences": {}
}